:100000000C94DD000C9405010C9405010C94050181
:100010000C9405010C9405010C9405010C94050148
:100020000C9405010C9405010C949B090C940D0A89
:100030000C9405010C9405010C9405010C94050128
:100040000C9405010C9405010C9405010C94050118
:100050000C9405010C9405010C9405010C94980571
:100060000C9405010C9405010C9405010C940501F8
:100070000C9405010C9405010C9405010C940501E8
:100080000C9405010C9405010C9405010C940501D8
:100090000C94E2050C9405010C9405010C940501E7
:1000A0000C9405010C9405010C940501CE08D108AF
:1000B000C008C408C808F208F208F208D508D90830
:1000C000DD08E308E708F208ED080000000024005E
:1000D00027002A002D003000080B00020202010058
:1000E000090400000102020000052400100105249B
:1000F000010101042402060524060001070581030D
:1001000010004009040100020A0000000705020275
:1001100040000007058302400000040309041201A7
:100120000002EF0201404123378000010102030178
:1001300041726475696E6F204C4C43004172647566
:10014000696E6F204D6963726F000000000025002A
:1001500028002B002E0031000404040404030405CD
:100160000202020204030202020206060606060654
:10017000040402020204040408020110408040103A
:1001800020408040800802040180402010020110BD
:100190008010204040200000000200090F000003F2
:1001A0000401000C0000000000000000000000003E
:1001B000000000000000250D240D11241FBECFEF0C
:1001C000DAE0DEBFCDBF11E0A0E0B1E0ECE8FDE198
:1001D00002C005900D92AE33B107D9F722E0AEE32D
:1001E000B1E001C01D92AE3BB207E1F710E0CCEDEB
:1001F000D0E004C02197FE010E945F0DCB3DD107E6
:10020000C9F70E943D0C0C94B90E0C940000E091CB
:100210008001F0918101309729F01092F60110923F
:10022000F50109940895CF93DF93AC01E091FD01AE
:10023000F091FE013097F1F09091F8018091F70173
:100240009817C0F090E0292F30E02617370754F4B4
:10025000D901A05ABE4FEA01C20FD31F88818C93E7
:100260009F5FF1CF1092F8016093F701CB01DF910E
:10027000CF910994DF91CF910895CF92DF92EF92C1
:10028000FF920F931F93CF93DF936C017A018B0141
:10029000C0E0D0E0CE15DF0589F0D8016D918D0169
:1002A000D601ED91FC910190F081E02DC6010995F8
:1002B000892B11F47E0102C02196ECCFC701DF919A
:1002C000CF911F910F91FF90EF90DF90CF90089505
:1002D00085ED8093BC008091BC0084FDFCCF109222
:1002E000F40108954091A201262F30E0240F311D22
:1002F00021323105DCF42091F4012430C9F4FC01F1
:1003000080E090E0861758F43091A2012191DC0141
:10031000AE57BE4FA30FB11D2C930196F3CF809122
:10032000A201680F6093A20180E0089581E0089522
:1003300082E008950895E091F8018091F701E817AF
:1003400030F4F0E0E05AFE4F808190E008958FEFA6
:100350009FEF08959091F8018091F701981750F45C
:10036000E92FF0E0E05AFE4F208130E09F5F90934C
:10037000F80102C02FEF3FEFC90108958091F70106
:1003800090E02091F801821B91090895CF93DF93AB
:1003900000D0CDB7DEB7CB01642F49835A830E94CA
:1003A00072014981842F5A81952F0F900F90DF9110
:1003B000CF910895CF93DF931F92CDB7DEB76983B6
:1003C00061E0CE0101960E94720181E090E00F9001
:1003D000DF91CF910895089580E090E008959C0109
:1003E000220F331F820F931FE0915E01F0915F0196
:1003F00020915D018E0F9F1FFC01E20FF11D6083B4
:1004000020915C01FC01E20FF11D508320915B0102
:10041000FC01E20FF11D408380E0089510925A0123
:100420001092590110925801E8E4F1E0A0E4B1E023
:10043000119211921D9281E0E835F807C9F70895ED
:10044000DC0170E0FB01E958FE4FE4911896EC9353
:100450001897685A7E4FFB018491E82FF0E0EE0F69
:10046000FF1FE65BFE4F8591949115969C938E93AA
:100470001497FB016491E62FF0E0EE0FFF1FE653A7
:10048000FF4F8591949117969C938E93169708959C
:100490000F931F93CF9301E112E0C0E06C2FC801CE
:1004A0000E942002CF5F075F1F4FC830B9F7CF917E
:1004B0001F910F9108950E94920E5F926F927F920A
:1004C0008F929F92AF92BF92CF92DF92EF92FF9264
:1004D0000F931F93CF93DF93CDB7DEB760970FB61F
:1004E000F894DEBF0FBECDBF8C01B12CEB2CF12CEC
:1004F000E016F1069CF42FE085E092E02B1550F019
:100500000E94AA01E1E0F0E0EC0FFD1FEE0DFF1DDF
:10051000808302C00E94AA01B394E8CF8981982FFA
:100520009F70933009F4DFC030F4913009F434C186
:10053000923041F0B5C2943009F47AC0953009F494
:10054000E2C1AEC280913F018111AAC280913E01F9
:100550008111A6C281E080933F0140E0A9E0FA2E1C
:1005600080915A01481708F060C0842F90E0BC01C8
:10057000605C7E4FDB012C91222309F452C0C090B5
:100580005E01D0905F01F89ED001F99EB00D11245C
:10059000AF5EBD4F16962D913C911797F901908152
:1005A00018968C911897982B908314960D911C9106
:1005B000159718965C9118978D919C9111979C01B5
:1005C000220F331F280F391F12968D919C9113977C
:1005D000DC01AA0FBB1F8A0F9B1FF601E80FF91F52
:1005E000D8019C91852F8095C82EC922592B9FB781
:1005F000F8942E0F3F1FE217F30789F0E190D8011E
:1006000088E05C9300C0E7FECC92EE0C00C000C016
:1006100000C008F4CC9200C08A9599F7ECCF9FBF38
:100620007894DB011C924F5F9BCF10923F0138C240
:100630004A81CB800C818D8190913E01911130C215
:1006400090E0A0E0B0E015E1880F991FAA1FBB1F42
:100650001A95D1F710E020E030E05EE0000F111FA6
:10066000221F331F5A95D1F7800F911FA21FB31F6E
:10067000840F911DA11DB11DD12CE12CF12C67E03F
:10068000CC0CDD1CEE1CFF1C6A95D1F7C80ED91EE0
:10069000EA1EFB1EC114D104E104F10491F440915F
:1006A000580150915901CA01880F991F480F591FCD
:1006B00060E070E080915E0190915F010E94B20E57
:1006C000BAC100E010E080915801909159010817DB
:1006D000190708F0B0C1B701A601C8010E94EF01D7
:1006E0000F5F1F4FF0CFEA809B815C814D818E812F
:1006F0000F8120913E012111D3C1F12CB0E89B9FC5
:10070000E00CF11C11242091580130915901E2169E
:10071000F30668F510E020E030E065E1000F111FFE
:10072000221F331F6A95D1F790E0A0E0B0E07EE091
:10073000880F991FAA1FBB1F7A95D1F7080F191FA1
:100740002A1F3B1F050F111D211D311D50E060E0C8
:1007500070E0E7E0440F551F661F771FEA95D1F759
:10076000400F511F621F731FC7010E94EF012091AC
:100770005A01A8E4B1E080E090E0821708F090C14F
:10078000FC014D915D910196E416F506B0F7E05C31
:10079000FE4F81E0808384C1813009F081C1033044
:1007A00008F47EC18090FF010E940E0281100E9419
:1007B00048028BEA089F912C1124969438E4A32ECA
:1007C00031E0B32E41E1E42E42E0F42E6E01E4E08C
:1007D000CE0ED11C712C6624639452E0552E8601F6
:1007E00002501109811006C0D8016C916F71C701C8
:1007F0000E942002F801808190E025E09595879580
:100800002A95E1F78130910551F08230910571F020
:10081000892B91F410925C0160925D0104C01092EA
:100820005D0160925C0150925B0106C010925B0119
:1008300060925D0150925C01F60131978081D60192
:100840002C91B0E82B9F90011124280F311DF70146
:1008500031832083772029F0F501329780819181BF
:1008600002C080E090E0280F391FD5012D933D9301
:100870005D01F70193838283009158011091590122
:1008800080819181080F191F10935901009358011D
:1008900080915A018F5F80935A017394F9E0EF0EB3
:1008A000F11C23E0C20ED11C791099CF80915E011A
:1008B00090915F01009731F00E94FA0D109259015A
:1008C000109258010115110509F4EAC07801EE0CE7
:1008D000FF1CE00EF11EC7010E94650D90935F01A1
:1008E00080935E01009751F0A70160E070E00E94E4
:1008F000B20E1093590100935801D2C010925901C1
:1009000010925801CDC08A81982F9F7109F493C02D
:1009100085FBAA24A0F8092F000F090F21E02093DE
:100920003E0110E0E92EF12C86FBBB24B0F886FFD7
:1009300028C0C8010E94650D6C01009729F0A8012C
:1009400060E070E00E94B20EAA2039F020915801B8
:10095000309159012E193F0902C020E030E0B90161
:10096000660F771F260F371F60915E0170915F0140
:10097000620F731FA801C6010E94970EA11079C0D3
:1009800019C0AA20B9F080915E0190915F01409159
:100990005801509159014E195F099A01220F331FD6
:1009A000420F531FBC01800F911F0E94A00E80E0D8
:1009B00090E02FC080905801909059018E189F08A8
:1009C00080915E0190915F01A401440F551F480D75
:1009D000591DBC01600F711F0E94A00EBB2099F031
:1009E000C401880F991F880E991E80915E01909115
:1009F0005F01A801B601880D991D0E94970EC601DE
:100A00000E94FA0D16C080915801909159018E19DB
:100A10009F099C01220F331F820F931F20915E01BB
:100A200030915F01A80160E070E0820F931F0E9487
:100A3000B20E10923E0140915A0150E061E070E028
:100A400080E491E060960FB6F894DEBF0FBECDBF94
:100A5000DF91CF911F910F91FF90EF90DF90CF909A
:100A6000BF90AF909F908F907F906F905F900C940D
:100A7000B20E80915E0190915F01409158015091BA
:100A800059014E195F099A01220F331F420F531F5C
:100A9000BC01800F911F0E94A00E812C912CA0CF31
:100AA00060960FB6F894DEBF0FBECDBFDF91CF9139
:100AB0001F910F91FF90EF90DF90CF90BF90AF907C
:100AC0009F908F907F906F905F900895615030F06D
:100AD0002091F100FC0120830196F8CF289A84E64A
:100AE0008093030208953FB7F8948091EE019091AE
:100AF000EF01A091F001B091F10126B5A89B05C0CE
:100B00002F3F19F00196A11DB11D3FBFBA2FA92F8C
:100B1000982F8827820F911DA11DB11DBC01CD0109
:100B200042E0660F771F881F991F4A95D1F70895F5
:100B30001F920F920FB60F9211242F933F938F9312
:100B40009F93AF93BF938091EA019091EB01A091A5
:100B5000EC01B091ED013091E90123E0230F2D3735
:100B600020F40196A11DB11D05C026E8230F0296B1
:100B7000A11DB11D2093E9018093EA019093EB013F
:100B8000A093EC01B093ED018091EE019091EF0103
:100B9000A091F001B091F1010196A11DB11D8093CA
:100BA000EE019093EF01A093F001B093F101BF919A
:100BB000AF919F918F913F912F910F900FBE0F900A
:100BC0001F9018951F920F920FB60F9211242F931A
:100BD0003F934F935F936F937F938F939F93AF93C5
:100BE000BF93EF93FF938091B900887F803609F41B
:100BF0009CC068F5883209F45BC090F4803109F438
:100C000054C038F4882309F4F6C0883009F44DC084
:100C1000F6C0883109F44CC0803209F45DC0EFC0E1
:100C2000803409F468C048F4803309F455C088332F
:100C300009F0E5C08093C501D8C0803509F44FC0E4
:100C4000883509F45DC0883409F0D9C0D6C0883928
:100C500009F4C7C0A8F4883709F467C038F48836A7
:100C600009F463C0803709F460C0C9C0883809F44A
:100C7000B8C0803909F45FC0803809F0C0C05BC0DB
:100C8000803B09F486C038F4803A09F466C0883A9B
:100C900009F47FC0B4C0803C09F4A7C0883C09F4C3
:100CA000A4C0883B09F48AC0AAC08091E80110C0A2
:100CB0009091E7018091E601981770F5E091E701C6
:100CC00081E08E0F8093E701F0E0EA53FE4F8081D0
:100CD0008093BB0085EC86C08093C5018EC0E091F7
:100CE000E70181E08E0F8093E7018091BB00F0E087
:100CF000EA53FE4F80839091E7018091E6016EC038
:100D0000E091E70181E08E0F8093E7018091BB00C5
:100D1000F0E0EA53FE4F80838091F30181116DC0B2
:100D200081E08093F20184EA61C083E08093F40162
:100D30001092C401CFCF8091C401803208F051C01D
:100D4000E091C40181E08E0F8093C4018091BB00CB
:100D5000F0E0EC55FE4F8083BDCF85EC8093BC0066
:100D60001092F4018091C401803230F4E091C4010A
:100D7000F0E0EC55FE4F10826091C40170E0E0910C
:100D8000F901F091FA0184EA91E009951092C40109
:100D900036C084E08093F4011092A3011092A20166
:100DA000E091FB01F091FC0109958091A201811174
:100DB00005C081E08093A20110928201E091A3011D
:100DC00081E08E0F8093A301F0E0EE57FE4F80810B
:100DD0008093BB009091A3018091A201981708F421
:100DE00079CF85E88093BC000AC085EC8093BC0075
:100DF0001092F40104C01092C5010E946801FF9195
:100E0000EF91BF91AF919F918F917F916F915F9182
:100E10004F913F912F910F900FBE0F901F901895FB
:100E2000FC0180910402811103C08FEF9FEF0895B0
:100E30009FB7F89482E08093E9002091F20030E0BF
:100E40001216130614F421E030E02115310559F093
:100E5000289A84E6809303028091F1008083809138
:100E6000F200882319F09FBFC90108958BE6809393
:100E7000E800F9CF2FB7F89483E08093E9009091D0
:100E8000E800892F807295FF04C09091F20080E401
:100E9000891B2FBF08958091620281110DC082E0ED
:100EA00080935E0284E080935F0210926102109250
:100EB000600281E0809362028EE592E00895CF9314
:100EC000DF931F92CDB7DEB76983DC01ED91FC9112
:100ED0000280F381E02D41E050E0BE016F5F7F4F63
:100EE00009950F90DF91CF91089583E08093E900F9
:100EF0008091F200882319F08AE38093E800089536
:100F00000E943A0790E00895CF93DF931F92CDB7E8
:100F1000DEB7FC018485958597FD05C02FEF3FEF77
:100F2000358724870BC0CE0101960E9410070197D8
:100F300019F4898190E002C08FEF9FEF0F90DF914D
:100F4000CF9108950F931F93CF93DF931F92CDB747
:100F5000DEB78C01FC018485958597FF0EC0CE011C
:100F600001960E941007019719F4298130E002C010
:100F70002FEF3FEFF80135872487F80184859585A9
:100F80000F90DF91CF911F910F910895FC018485FF
:100F9000958597FD0BC09FB7F89482E08093E90098
:100FA0008091F2009FBF90E0019608959FB7F8945A
:100FB00082E08093E9008091F2009FBF90E0089565
:100FC00040915B0250915C022091590230915A028B
:100FD00042175307B4F49091E8009570E1F39091B3
:100FE000E80092FD19C08093F10080915B0290911E
:100FF0005C0201968F739927892B19F48EEF8093E9
:10100000E80080915B0290915C02019690935C02F3
:1010100080935B0281E0089580E00895CF92DF9293
:10102000EF92FF920F931F93CF93DF931F92CDB751
:10103000DEB7182F062FE42E862F880F8E5F998338
:101040000E94E00783E00E94E007F12EC12E998103
:10105000D92E8C2D8F19801798F4F601E7FE02C067
:10106000849101C080810E94E007182F80E00E94D7
:10107000E0078123FFEFCF1ADF0A8111EACF01C019
:1010800081E00F90DF91CF911F910F91FF90EF9032
:10109000DF90CF900895DF92EF92FF920F931F930E
:1010A000CF93DF93D82E8A017B01E40EF51EEB016E
:1010B000CE15DF0571F0D7FE03C0FE01849101C09B
:1010C00088810E94E00721968111F2CF8FEF9FEF78
:1010D00001C0C801DF91CF911F910F91FF90EF9058
:1010E000DF9008950F931F93CF93DF931F92CDB797
:1010F000DEB782E0898342E450E068ED70E080E88A
:101100000E944B080E944B07DC0112960D911C9126
:1011100013970115110569F0D801ED91FC9102803A
:10112000F381E02DBE016F5F7F4FC801099597FFE6
:1011300007C089810F90DF91CF911F910F91089582
:10114000F80100851185E5CF90E0FC01EA56FE4FDD
:101150004491FC01E958FE4F2491FC01E85AFE4FEE
:101160008491882309F44CC04423E1F150E0FA0152
:101170003197EF30F105B0F5EA5AFF4F0C945F0D4F
:10118000909180009F7707C0909180009F7D03C061
:1011900090918000977F9093800024C094B59F77B2
:1011A00002C094B59F7D94BD1DC0909190009F7723
:1011B00007C0909190009F7D03C090919000977F11
:1011C000909390000FC09091C0009F7703C09091C2
:1011D000C0009F7D9093C00005C09091C200977F92
:1011E0009093C200E82FF0E0EE0FFF1FE65BFE4F8A
:1011F000A591B4918FB7F894EC912E2B2C938FBFBF
:101200000895CF92DF92EF92FF920E9473056B01D7
:101210007C010E947305DC01CB018C199D09AE098C
:10122000BF09883E9340A105B10598F3FF90EF9068
:10123000DF90CF9008958F929F92AF92BF92CF92FE
:10124000DF92EF92FF920F931F93CF93DF936C0186
:101250005B017A0180910B01882309F456C08091CB
:101260000402882309F451C08091020280FF05C066
:101270008091E00082608093E000E70110E00AEFD7
:1012800083E0882E9AE3992E2097B1F10E943A07C5
:10129000811105C00150C9F10E940109F5CF282F25
:1012A00030E0C217D3070CF48C2F4FB7F89480921C
:1012B000E9009091E80095FF1DC0282F30E0C21B87
:1012C000D30BF501982F915020F081918093F1007C
:1012D000FACFA20EB31E112319F09092E80009C0B4
:1012E0008091E80085FD06C09092E80011E020970B
:1012F00009F010E04FBFC8CF1111C8CF5D9A84E646
:1013000080935D021E141F0444F081E090E0F6011A
:101310009383828380E090E001C0C701DF91CF9189
:101320001F910F91FF90EF90DF90CF90BF90AF9003
:101330009F908F9008951F920F920FB60F921124D5
:101340008F939F938091E1009091E100937F909320
:10135000E10083FF0FC01092E90091E09093EB0051
:101360001092EC0092E39093ED001092040298E04A
:101370009093F00082FF20C093E09093E900909159
:10138000F200992319F09AE39093E80090915D029E
:10139000992339F090915D02915090935D029923C9
:1013A00089F190910302992339F0909103029150B1
:1013B00090930302992341F184FF10C08091E200D1
:1013C0008E7E81608093E2008091E1008F7E809329
:1013D000E100809102028E7E806111C080FF16C004
:1013E0008091E2008E7E80618093E2008091E10036
:1013F0008E7E8093E100809102028E7E81608093D8
:10140000020204C05D98CDCF2898D6CF9F918F91CE
:101410000F900FBE0F901F9018951F920F920FB64E
:101420000F921124CF92DF92EF92FF920F931F93AE
:101430002F933F934F935F936F937F938F939F93DC
:10144000AF93BF93EF93FF93CF93DF93CDB7DEB707
:101450006C97DEBFCDBF1092E9008091E80083FF5A
:10146000EDC168E0CE0145960E94660582EF80934B
:10147000E8008D8987FF05C09091E80090FFFCCFC0
:1014800003C09EEF9093E800982F907609F0C6C0B5
:101490009E892F89188D91110CC0803829F4809174
:1014A00001028093F10002C01092F1001092F1004D
:1014B00048C1422F50E0512B913051F4811141C16C
:1014C0004130510509F03DC1809101028D7F0BC073
:1014D000933061F4811135C14130510509F031C1BA
:1014E000809101028260809301022BC1953041F40A
:1014F0008091E80080FFFCCF20682093E30021C1A9
:10150000963009F05FC0EB8CFC8C1092E9001092D1
:101510005C0210925B02123091F510925A02109206
:1015200059020E94720899E0BE016F5F7F4FDB0194
:10153000E92F1D92EA95E9F799831A8391E09E833A
:1015400090EA98879AEF998720915B0230915C022C
:10155000275F3F4F3C832B838D831092E9001092CD
:101560005C0210925B02F0925A02E092590249E04A
:1015700050E080E00E944B080E947208E2C0F092A6
:101580005A02E09259020E944B07DC011296ED903C
:10159000FC901397E114F10409F4C0C0D701ED9158
:1015A000FC910480F581E02DBE016B5E7F4FC70189
:1015B0000995009719F00CF0C4C0C7C0F701E0848A
:1015C000F184E8CF973009F4C0C0983021F481E06D
:1015D0008093F100B6C0993009F0B3C0837009F070
:1015E000B4C0E3E1F1E081E021E036E390819923AA
:1015F00061F08093E9002093EB0091919093EC00CF
:101600003093ED008F5F873089F78EE78093EA0093
:101610001092EA008F898093040293C08B8D9C8D79
:101620001092E90010925C0210925B0290935A02B1
:1016300080935902898D811156C08E899D89913A76
:1016400059F4813209F081C047E050E064E071E074
:1016500080E00E944B0875C0913209F076C0833259
:1016600089F4888D90E0982F88272F89822BA0E01D
:10167000B0E08093000190930101A0930201B09328
:1016800003015FC0803269F48091E80082FFFCCFE3
:1016900067E084E091E00E9466058BEF8093E800AC
:1016A00006C0823209F04DC08F8980930B01809172
:1016B0000002882319F0EEEFFAE002C0E0E0F8E063
:1016C0008091040190910501A0910601B09107015C
:1016D000803B9440A105B10509F07BC080910B01CE
:1016E00080FF93C076C00E944B07DC0112960D91DB
:1016F0001C9113970115110541F1D801ED91FC9151
:101700000190F081E02DBE016B5E7F4FC80109950D
:10171000811117C0F80100851185ECCF113009F453
:101720004EC0133091F48F89882309F445C082306C
:1017300081F440E86DE08CE391E00E940E0888237C
:1017400021F08EEF8093E80079C081E28093EB0076
:1017500075C0813029F440E86BE080E391E0EDCF83
:10176000833099F70E944B07DC011296ED90FC90B4
:1017700013978E010F5F1F4F6801E114F10479F098
:10178000D701ED91FC910680F781E02DB801C701EA
:101790000995080F111DF701E084F184EECFD801FF
:1017A0001C92F60101900020E9F73197BF016C19F6
:1017B0007D0940E0C601C1CF6AE171E002C06EE17F
:1017C00071E06115710509F2FB01449150E080E878
:1017D00040CF0FB6F894A8958091600088618093FF
:1017E0006000109260000FBEA895EE3F2AE0F2075D
:1017F00039F08091FE0A9091FF0A91838083A1CFF6
:101800001092FF0A1092FE0A9CCFEE3F8AE0F80782
:1018100031F0808191819093FF0A8093FE0A87E7DF
:1018200097E7918380839BE088E10FB6F894A895B1
:10183000809360000FBE9093600083CF6C960FB6CC
:10184000F894DEBF0FBECDBFDF91CF91FF91EF9136
:10185000BF91AF919F918F917F916F915F914F91C8
:101860003F912F911F910F91FF90EF90DF90CF90BC
:101870000F900FBE0F901F901895789484B58260DA
:1018800084BD84B5816084BD85B5826085BD85B524
:10189000816085BD80916E00816080936E001092A2
:1018A000810080918100826080938100809181001D
:1018B00081608093810080918000816080938000AE
:1018C000809191008260809391008091910081606D
:1018D000809391008091900081608093900080912E
:1018E000C10084608093C1008091C10082608093B8
:1018F000C1008091C10081608093C1008091C300CC
:1019000081608093C3008091C00082608093C0009A
:101910008091C20081608093C20080917A008460CF
:1019200080937A0080917A00826080937A0080911F
:101930007A00816080937A0080917A008068809339
:101940007A00109204021092010210920202809119
:10195000D70081608093D70080EA8093D80089B552
:10196000806189BD89B5826089BD09B400FEFDCF63
:101970000E9401098091D8008F7C80618093D800FB
:101980008091E000807F8093E0008091E1008E7E76
:101990008093E1008DE08093E200559A209A5D9853
:1019A0002898EEEFFFE7859194918B3F9C4D19F4B9
:1019B00081E08093000284E88093BA0087E091E0A0
:1019C0009093FC018093FB0183E191E09093FA01F5
:1019D0008093F9011092F8011092F7011092F6012C
:1019E0001092F5011092F401C1E0C093F30110923E
:1019F000F20182E00E94A40883E00E94A408809182
:101A0000B9008E7F8093B9008091B9008D7F80935B
:101A1000B90088E48093B80085E48093BC008DE52C
:101A200092E09093FE018093FD01C093FF010E941C
:101A30000E020E944802C0E0D0E00E9401092097F7
:101A4000E1F30E940000F9CF089510926D02109208
:101A50006C0288EE93E0A0E0B0E080936E02909379
:101A60006F02A0937002B09371022DE131E03093C8
:101A70006B0220936A022FEF3FEF3093770220939F
:101A80007602109208021092070280930902909346
:101A90000A02A0930B02B0930C028FE291E09093A4
:101AA000060280930502E1E1F2E0118210821382C6
:101AB0001282399682E0E935F807B9F70895EE0FFA
:101AC000FF1F0590F491E02D0994CF93DF938230AE
:101AD000910510F482E090E0E091BC02F091BD022B
:101AE00020E030E0C0E0D0E0309711F1408151813A
:101AF00048175907C0F04817590761F4828193814C
:101B0000209719F09B838A832BC09093BD0280930A
:101B1000BC0226C02115310519F04217530718F4ED
:101B20009A01BE01DF01EF010280F381E02DDCCFDD
:101B30002115310509F1281B390B2430310590F4AA
:101B400012968D919C9113976115710521F0FB01FF
:101B50009383828304C09093BD028093BC02FD01F5
:101B6000329644C0FD01E20FF31F819391932250FE
:101B700031092D933C933AC02091BA023091BB02B7
:101B8000232B41F420910E0130910F013093BB02C1
:101B90002093BA0220910C0130910D0121153105DD
:101BA00041F42DB73EB74091100150911101241B13
:101BB000350BE091BA02F091BB02E217F307A0F4F3
:101BC0002E1B3F0B2817390778F0AC014E5F5F4F93
:101BD0002417350748F04E0F5F1F5093BB02409308
:101BE000BA028193919302C0E0E0F0E0CF01DF916F
:101BF000CF9108950F931F93CF93DF93009709F42C
:101C00008CC0FC013297138212820091BC021091A9
:101C1000BD020115110581F420813181820F931FCE
:101C20002091BA023091BB022817390779F5F09359
:101C3000BB02E093BA0271C0D80140E050E0AE1799
:101C4000BF0750F412962D913C911397AD012115C9
:101C5000310509F1D901F3CF9D01DA0133832283E4
:101C600060817181860F971F8217930769F4EC01D9
:101C700028813981260F371F2E5F3F4F3183208304
:101C80008A819B8193838283452B29F4F093BD0243
:101C9000E093BC0242C01396FC93EE931297ED01C1
:101CA000499159919E01240F351FE217F30771F4F2
:101CB00080819181840F951F029611969C938E933B
:101CC0008281938113969C938E931297E0E0F0E0CB
:101CD000D80112968D919C911397009719F0F801F5
:101CE0008C01F6CF8D919C9198012E5F3F4F820F12
:101CF000931F2091BA023091BB022817390769F46B
:101D0000309729F41092BD021092BC0202C01382D7
:101D100012821093BB020093BA02DF91CF911F9100
:101D20000F91089581E090E0F8940C94B90EFB01B6
:101D3000DC0102C001900D9241505040D8F7089547
:101D40006817790768F4FB01DC01E40FF51FA40FA5
:101D5000B51F02C002900E9241505040D8F708952E
:101D60000C94970EDC0101C06D9341505040E0F798
:101D7000089510E0CCEDD0E004C0FE010E945F0D9C
:0C1D80002196CD3DD107C9F7F894FFCFA4
:101D8C00FFFFFFFF00E10000000000000000BE02AA
:101D9C00800000C18081000000000000005F071B74
:101DAC000980077507C6078407A20700000000DA40
:0E1DBC0001C601EC019A01BE01AA019B0100C3
:2070000055C000006EC000006CC000006AC0000068C0000066C0000064C0000062C0000043
:2070200060C000005EC00000F2C400005AC0000058C0000056C0000054C0000052C00000EE
:2070400050C0000078C000004CC000004AC0000048C0000046C0000044C0000042C00000BE
:2070600040C000003EC000003CC000003AC0000038C0000036C0000034C0000032C0000048
:2070800030C000002EC000002CC000002AC0000028C0000026C0000024C0000022C00000A8
:2070A00020C000001EC000001CC0000011241FBECFEFDAE0DEBFCDBF11E0A0E0B1E0E2E3BC
:2070C000FFE702C005900D92A83AB107D9F711E0A8EAB1E001C01D92AE3BB107E1F78FD30B
:2070E00026C78ECFF89410926F0010928100109285001092840081E085BF15BE47985D98ED
:2071000028980C94000008952091B2013091B3012F5F3F4F3093B3012093B201932F37FFA8
:2071200003C08EEF831B982F990F921710F447980895479A08951F920F920FB60F9211246E
:207140002F938F939F93EF93FF9310928500109284008091A8019091A901009741F00197D3
:207160009093A9018093A801892B09F45D988091AA019091AB01009741F001979093AB0128
:207180008093AA01892B09F42898E0E0F0E0859194918F5F9F4F49F08091AC019091AD0153
:2071A00001969093AD018093AC01FF91EF919F918F912F910F900FBE0F901F90189584E0BC
:2071C0008093E9000DC08091E8008B778093E80003C08EB3882351F08091E80082FFF9CFBE
:2071E0008091E80085FFEFCF8091F1000895982F83E08093E9008091E80085FD0DC0809136
:20720000E8008E778093E80003C08EB3882369F08091E80080FFF9CF9093F1005D9A84E6C9
:2072200090E09093A9018093A80108954F925F926F927F928F929F92AF92BF92CF92DF921E
:20724000EF92FF920F931F93CF93DF9384E08093E9008091E80082FF57C2289A84E690E065
:207260009093AB018093AA01AADF182F853481F48CE49DE19093AD018093AC0107B600FC4B
:20728000FDCFF999FECF81E180935700E89503C0843519F494DF8DE00DC28C34E1F38035F9
:2072A000D1F3843721F484E4A2DF80E003C2813611F489E5FFC18134B1F481DF182F7FDFE3
:2072C00090E0880F991FAA2797FDA095BA2F312F330F20E0442737FD4095542F822B932B68
:2072E000A42BB52BB8C1803711F483E5E3C1833549F4C0E0D1E089917ADF21E0C730D20714
:20730000D1F7D9C1863521F481E371DF80E3D2C1833731F487E86BDF85E969DF8EE1CAC149
:207320008536B9F4E0E0F0E093E085E090935700E89507B600FCFDCF80935700E89507B65D
:2073400000FCFDCFE058FF4FA0E7E030FA0771F7A2CF823739F4E1E0F0E089E08093570024
:207360008491A8C1863439F4E0E0F0E089E08093570084919FC18E3439F4E3E0F0E089E0E5
:2073800080935700849196C1813539F4E2E0F0E089E08093570084918DC1823631F489E521
:2073A00026DF80E024DF80E885C1823419F0873609F0E5C01092AD011092AC0100DF082FE8
:2073C000FEDEF82EFCDE682E8554823008F071C1902F80E0CF2DD0E0C82BD92B10926F00B3
:2073E000173609F04BC081E180935700E895DD24CC24C3943FC0E090AE01F090AF010091CC
:20740000B0011091B101B6E46B16D9F4ED2DF0E0EE29FF29E4918E2FEADEDD2081F082E08D
:2074200090E0A0E0B0E0E80EF91E0A1F1B1FE092AE01F092AF010093B0011093B101DC2470
:2074400018C0D801C701B695A7959795879559D5CEDE82E090E0A0E0B0E0E80EF91E0A1FF2
:207460001B1FE092AE01F092AF010093B0011093B1012197209709F0BECF7DC08090AE01F5
:207480009090AF01A090B001B090B10196E4691609F05DC083E0F40180935700E89507B63E
:2074A00000FCFDCF54C0F6E46F1661F5772031F1E090AE01F090AF010091B0011091B1019E
:2074C0007EDED82ECC24852D90E08C299D29F7010C0140925700E895112482E090E0A0E08B
:2074E000B0E0E80EF91E0A1F1B1FE092AE01F092AF010093B0011093B10102C060DE582E1A
:20750000742423C0E090AE01F090AF010091B0011091B10116950795F794E79450DE682FFA
:20752000C701F7D48091AE019091AF01A091B001B091B1010296A11DB11D8093AE01909349
:20754000AF01A093B001B093B101219704C05524772444244394209709F0A5CF96E46916B6
:2075600041F485E0F40180935700E89507B600FCFDCF8DE03CDE82E080936F009CC0833492
:2075800071F40091AE011091AF0119DE90E021E0F8010C0120935700E89511247CCE8336C8
:2075A00019F5E090AE01F090AF010091B0011091B10105DEF701E16090E021E00C0120938C
:2075C0005700E895112482E090E0A0E0B0E0E80EF91E0A1F1B1FE092AE01F092AF0100936A
:2075E000B0011093B10157CE8D3661F4E091AE01F091AF0185E080935700E89507B600FCF2
:20760000FDCF49CE823551F4E091AE01F091AF0105911491812FEBDD802F4CC0843421F5FE
:20762000E090AE01F090AF010091B0011091B10116950795F794E794C2DD682FC70169D4DE
:207640008091AE019091AF01A091B001B091B1010296A11DB11D8093AE019093AF01A093D8
:20766000B001B093B10117CE843609F5E090AE01F090AF010091B0011091B101D801C70142
:20768000B695A795979587953CD4B1DD82E090E0A0E0B0E0E80EF91E0A1F1B1FE092AE010A
:2076A000F092AF010093B0011093B10104C08B3111F08FE39CDD83E08093E9009091E8002B
:2076C0008091E8008E778093E80095FF04C010C08EB38823C9F08091E80080FFF9CF809193
:2076E000E8008E778093E80003C08EB3882361F08091E80080FFF9CF84E08093E9008091F1
:20770000E8008B778093E800DF91CF911F910F91FF90EF90DF90CF90BF90AF909F908F90AC
:207720007F906F905F904F9008959091B601892F8F77813249F58091B7018032A1F081328A
:2077400019F5913A09F58091E800877F8093E8008DE091E067E070E00BD28091E8008B770B
:207760008093E8000895913279F48091E800877F8093E8008DE091E067E070E05DD2809192
:20778000E8008E778093E800089582E061EC42E0B5D083E061E842E1B1D084E060E842E1EF
:2077A000ADC084B7877F84BF88E10FB6F89480936000109260000FBE20E880E090E00FB63F
:2077C000F89420936100809361000FBE81E085BF92E095BF3F9A209A559AE1E6F0E02083A1
:2077E000108247985D982898109289008AEF8093880090936F0083E080938100F0C040911A
:20780000000850910108109201081092000894B714BE88E10FB6F8948093600010926000D5
:207820000FBE292F30E0F901E270F07091FD18C090FF05C0859194918F5F9F4F81F423FFFF
:207840000FC08091090190910A014817590741F0E0E0F0E0859194918F5F9F4F09F042DC64
:20786000A0DF78941092AD011092AC010CC0DEDC36D38091AC019091AD0181549F4110F00D
:207880001092140141DC80911401882381F78091E00081608093E00025DC80E090E0089598
:2078A000FA01923049F0933061F09130F9F485E191E022E130E01EC087E291E02EE330E04D
:2078C00019C0882329F485E691E024E030E012C0813029F489E691E022E230E00BC0823006
:2078E00029F48DE891E028E130E004C080E090E020E030E091838083C90108958093E9004E
:207900008091EB0081608093EB001092ED006093EC004093ED008091EE00881F8827881F62
:2079200008958091B60188238CF403C08EB38823B1F08091E80082FFF9CF8091E8008B772A
:207940008093E80008958EB3882349F08091E80080FFF9CF8091E8008E778093E800089594
:20796000EF92FF920F931F9345D04CD008ED10E0F80180818F77808380818068808380819B
:207980008F7D808319BC1EBA1092B40180EEE82EF12CF70180818B7F8083F8018081816052
:2079A000808380E060E042E0A9DFE1EEF0E080818E7F8083E2EEF0E0808181608083808144
:2079C00088608083F70180818E7F8083F8018081806180831F910F91FF90EF900895E7ED06
:2079E000F0E08081816080838AE482BF81E08093B501B6CFE8EDF0E080818E7F808310921C
:207A0000E20008951092DA001092E10008951F920F920FB60F9211242F933F934F935F93F6
:207A20006F937F938F939F93AF93BF93EF93FF938091DA0080FF1BC08091D80080FF17C0B2
:207A40008091DA008E7F8093DA008091D90080FF0BC080E189BD82E189BD09B400FEFDCF36
:207A600081E08EBB3BD203C019BC1EBA37D28091E10080FF17C08091E20080FF13C0809138
:207A8000E2008E7F8093E2008091E20080618093E2008091D80080628093D80019BC85E049
:207AA0008EBB1CD28091E10084FF2CC08091E20084FF28C080E189BD82E189BD09B400FEC5
:207AC000FDCF8091D8008F7D8093D8008091E1008F7E8093E1008091E2008F7E8093E20012
:207AE0008091E20081608093E2008091B401882331F48091E30087FD02C081E001C084E067
:207B00008EBBECD18091E10083FF21C08091E20083FF1DC08091E100877F8093E10082E06A
:207B20008EBB1092B4018091E1008E7F8093E1008091E2008E7F8093E2008091E2008061E9
:207B40008093E20080E060E042E0D8DEC7D1FF91EF91BF91AF919F918F917F916F915F9130
:207B60004F913F912F910F900FBE0F901F9018959C014091BC015091BD014617570718F49D
:207B8000F90190E044C06115710511F0AB01F8CF8091E8008E778093E80040E050E0F0CF0F
:207BA0008EB3882309F444C0853009F443C08091E80083FF02C081E008958091E80082FD70
:207BC00031C08091E80080FF22C08091F3009091F200782F60E0292F30E0262B372B07C07A
:207BE00081918093F100415050402F5F3F4F4115510519F02830310598F390E02830310566
:207C000009F491E08091E8008E778093E8004115510531F6992321F605C08EB3882341F075
:207C2000853041F08091E80082FFF7CF80E0089582E0089583E008959C016115710529F47C
:207C40008091E8008B778093E800F90126C08EB3882391F1853091F18091E80083FF02C06C
:207C600081E008958091E80082FFF1CF06C08091F10081936150704059F02091F300809191
:207C8000F200322F20E090E0822B932B892B79F78091E8008B778093E80061157105B9F601
:207CA00005C08EB3882341F0853041F08091E80080FFF7CF80E0089582E0089583E00895C2
:207CC0000F931F93DF93CF9300D0CDB7DEB7E6EBF1E08091F100819381E0EE3BF807C9F792
:207CE00024DD8091E80083FFE4C08091B6019091B701953009F46DC0963040F4913081F1A7
:207D0000913070F0933009F0D4C02AC0983009F4A3C0993009F4B2C0963009F0CAC07CC023
:207D2000803809F4C6C0823809F0C3C08091BA0187708093E9008091EB001092E9002091DB
:207D4000E800277F2093E80090E025E0969587952A95E1F781708093F1001092F10087C0D8
:207D6000882319F0823009F0A4C08F71823009F0A0C08091B801882331F52091BA01277097
:207D800009F497C02093E9008091EB0080FF1BC0933021F48091EB00806213C08091EB0018
:207DA00080618093EB0081E090E002C0880F991F2A95E2F78093EA001092EA008091EB00E5
:207DC00088608093EB001092E9008091E800877F51C0882309F06DC01091B8011F770FB79B
:207DE000F8948091E800877F8093E8009ADD8091E80080FFFCCF8091E3008078812B809398
:207E0000E30080688093E300112311F482E001C083E08EBB0FBF4DC08058823008F049C033
:207E20008091B8019091B9016091BA01AE014F5F5F4F36DDBC01009709F43BC08091E8008E
:207E4000877F8093E80089819A8192DE8091E8008B778093E8002DC0803859F58091E800AA
:207E6000877F8093E8008091B4018093F1008091E8008E778093E80054DD1BC08823C9F4CA
:207E80009091B8019230A8F48091E800877F8093E8009093B40145DD8091B401882331F420
:207EA0008091E30087FD02C081E001C084E08EBB6CDC8091E80083FF0AC08091EB0080624E
:207EC0008093EB008091E800877F8093E8000F900F90CF91DF911F910F91089508951F9360
:207EE0008EB3882361F01091E9001092E9008091E80083FF01C0E4DE17701093E9001F916F
:207F00000895F999FECF92BD81BDF89A992780B50895262FF999FECF1FBA92BD81BD20BDBD
:207F20000FB6F894FA9AF99A0FBE01960895F894FFCF4341544552494E4100777700080031
:207F40000000000000080112011001020000084123370001000201000109023E00020100FE
:207F600080320904000001020201000524001001042402040524060001070582030800FF0C
:207F800009040100020A000000070504021000010705830210000104030904220341007216
:207FA000006400750069006E006F0020004D006900630072006F0020002000200000001810
:1A7FC00003410072006400750069006E006F0020004C004C004300000000D7
:00000001FF
